{
  "_format": "hh-sol-artifact-1",
  "contractName": "NFTMarket",
  "sourceName": "contracts/Market.sol",
  "abi": [
    {
      "inputs": [],
      "stateMutability": "nonpayable",
      "type": "constructor"
    },
    {
      "anonymous": false,
      "inputs": [
        {
          "indexed": false,
          "internalType": "address",
          "name": "winner",
          "type": "address"
        },
        {
          "indexed": false,
          "internalType": "uint256",
          "name": "amount",
          "type": "uint256"
        }
      ],
      "name": "AuctionEnded",
      "type": "event"
    },
    {
      "anonymous": false,
      "inputs": [
        {
          "indexed": false,
          "internalType": "address",
          "name": "bidder",
          "type": "address"
        },
        {
          "indexed": false,
          "internalType": "uint256",
          "name": "amount",
          "type": "uint256"
        }
      ],
      "name": "HighestBidIncreased",
      "type": "event"
    },
    {
      "anonymous": false,
      "inputs": [
        {
          "indexed": true,
          "internalType": "uint256",
          "name": "itemId",
          "type": "uint256"
        },
        {
          "indexed": true,
          "internalType": "address",
          "name": "nftContract",
          "type": "address"
        },
        {
          "indexed": true,
          "internalType": "uint256",
          "name": "tokenId",
          "type": "uint256"
        },
        {
          "indexed": false,
          "internalType": "address",
          "name": "seller",
          "type": "address"
        },
        {
          "indexed": false,
          "internalType": "address",
          "name": "owner",
          "type": "address"
        },
        {
          "indexed": false,
          "internalType": "uint256",
          "name": "price",
          "type": "uint256"
        },
        {
          "indexed": false,
          "internalType": "uint256",
          "name": "auctionEndsTime",
          "type": "uint256"
        },
        {
          "indexed": false,
          "internalType": "bool",
          "name": "isBid",
          "type": "bool"
        },
        {
          "indexed": false,
          "internalType": "bool",
          "name": "sold",
          "type": "bool"
        },
        {
          "indexed": false,
          "internalType": "address",
          "name": "highestBidder",
          "type": "address"
        },
        {
          "indexed": false,
          "internalType": "uint256",
          "name": "highestBid",
          "type": "uint256"
        }
      ],
      "name": "MarketItemCreated",
      "type": "event"
    },
    {
      "inputs": [
        {
          "internalType": "address",
          "name": "nftContract",
          "type": "address"
        },
        {
          "internalType": "uint256",
          "name": "itemId",
          "type": "uint256"
        }
      ],
      "name": "auctionEnd",
      "outputs": [],
      "stateMutability": "nonpayable",
      "type": "function"
    },
    {
      "inputs": [
        {
          "internalType": "uint256",
          "name": "itemId",
          "type": "uint256"
        }
      ],
      "name": "createMarketBid",
      "outputs": [],
      "stateMutability": "payable",
      "type": "function"
    },
    {
      "inputs": [
        {
          "internalType": "address",
          "name": "nftContract",
          "type": "address"
        },
        {
          "internalType": "uint256",
          "name": "tokenId",
          "type": "uint256"
        },
        {
          "internalType": "uint256",
          "name": "price",
          "type": "uint256"
        },
        {
          "internalType": "bool",
          "name": "isBid",
          "type": "bool"
        }
      ],
      "name": "createMarketItem",
      "outputs": [],
      "stateMutability": "payable",
      "type": "function"
    },
    {
      "inputs": [
        {
          "internalType": "address",
          "name": "nftContract",
          "type": "address"
        },
        {
          "internalType": "uint256",
          "name": "itemId",
          "type": "uint256"
        }
      ],
      "name": "createMarketSale",
      "outputs": [],
      "stateMutability": "payable",
      "type": "function"
    },
    {
      "inputs": [],
      "name": "fetchItemsCreated",
      "outputs": [
        {
          "components": [
            {
              "internalType": "uint256",
              "name": "itemId",
              "type": "uint256"
            },
            {
              "internalType": "address",
              "name": "nftContract",
              "type": "address"
            },
            {
              "internalType": "uint256",
              "name": "tokenId",
              "type": "uint256"
            },
            {
              "internalType": "address payable",
              "name": "seller",
              "type": "address"
            },
            {
              "internalType": "address payable",
              "name": "owner",
              "type": "address"
            },
            {
              "internalType": "uint256",
              "name": "price",
              "type": "uint256"
            },
            {
              "internalType": "uint256",
              "name": "auctionEndsTime",
              "type": "uint256"
            },
            {
              "internalType": "bool",
              "name": "isBid",
              "type": "bool"
            },
            {
              "internalType": "bool",
              "name": "sold",
              "type": "bool"
            },
            {
              "internalType": "address",
              "name": "highestBidder",
              "type": "address"
            },
            {
              "internalType": "uint256",
              "name": "highestBid",
              "type": "uint256"
            }
          ],
          "internalType": "struct NFTMarket.MarketItem[]",
          "name": "",
          "type": "tuple[]"
        }
      ],
      "stateMutability": "view",
      "type": "function"
    },
    {
      "inputs": [],
      "name": "fetchMarketItems",
      "outputs": [
        {
          "components": [
            {
              "internalType": "uint256",
              "name": "itemId",
              "type": "uint256"
            },
            {
              "internalType": "address",
              "name": "nftContract",
              "type": "address"
            },
            {
              "internalType": "uint256",
              "name": "tokenId",
              "type": "uint256"
            },
            {
              "internalType": "address payable",
              "name": "seller",
              "type": "address"
            },
            {
              "internalType": "address payable",
              "name": "owner",
              "type": "address"
            },
            {
              "internalType": "uint256",
              "name": "price",
              "type": "uint256"
            },
            {
              "internalType": "uint256",
              "name": "auctionEndsTime",
              "type": "uint256"
            },
            {
              "internalType": "bool",
              "name": "isBid",
              "type": "bool"
            },
            {
              "internalType": "bool",
              "name": "sold",
              "type": "bool"
            },
            {
              "internalType": "address",
              "name": "highestBidder",
              "type": "address"
            },
            {
              "internalType": "uint256",
              "name": "highestBid",
              "type": "uint256"
            }
          ],
          "internalType": "struct NFTMarket.MarketItem[]",
          "name": "",
          "type": "tuple[]"
        }
      ],
      "stateMutability": "view",
      "type": "function"
    },
    {
      "inputs": [],
      "name": "fetchMarketItemsBids",
      "outputs": [
        {
          "components": [
            {
              "internalType": "uint256",
              "name": "itemId",
              "type": "uint256"
            },
            {
              "internalType": "address",
              "name": "nftContract",
              "type": "address"
            },
            {
              "internalType": "uint256",
              "name": "tokenId",
              "type": "uint256"
            },
            {
              "internalType": "address payable",
              "name": "seller",
              "type": "address"
            },
            {
              "internalType": "address payable",
              "name": "owner",
              "type": "address"
            },
            {
              "internalType": "uint256",
              "name": "price",
              "type": "uint256"
            },
            {
              "internalType": "uint256",
              "name": "auctionEndsTime",
              "type": "uint256"
            },
            {
              "internalType": "bool",
              "name": "isBid",
              "type": "bool"
            },
            {
              "internalType": "bool",
              "name": "sold",
              "type": "bool"
            },
            {
              "internalType": "address",
              "name": "highestBidder",
              "type": "address"
            },
            {
              "internalType": "uint256",
              "name": "highestBid",
              "type": "uint256"
            }
          ],
          "internalType": "struct NFTMarket.MarketItem[]",
          "name": "",
          "type": "tuple[]"
        }
      ],
      "stateMutability": "view",
      "type": "function"
    },
    {
      "inputs": [],
      "name": "fetchMyNfts",
      "outputs": [
        {
          "components": [
            {
              "internalType": "uint256",
              "name": "itemId",
              "type": "uint256"
            },
            {
              "internalType": "address",
              "name": "nftContract",
              "type": "address"
            },
            {
              "internalType": "uint256",
              "name": "tokenId",
              "type": "uint256"
            },
            {
              "internalType": "address payable",
              "name": "seller",
              "type": "address"
            },
            {
              "internalType": "address payable",
              "name": "owner",
              "type": "address"
            },
            {
              "internalType": "uint256",
              "name": "price",
              "type": "uint256"
            },
            {
              "internalType": "uint256",
              "name": "auctionEndsTime",
              "type": "uint256"
            },
            {
              "internalType": "bool",
              "name": "isBid",
              "type": "bool"
            },
            {
              "internalType": "bool",
              "name": "sold",
              "type": "bool"
            },
            {
              "internalType": "address",
              "name": "highestBidder",
              "type": "address"
            },
            {
              "internalType": "uint256",
              "name": "highestBid",
              "type": "uint256"
            }
          ],
          "internalType": "struct NFTMarket.MarketItem[]",
          "name": "",
          "type": "tuple[]"
        }
      ],
      "stateMutability": "view",
      "type": "function"
    },
    {
      "inputs": [],
      "name": "getListingPrice",
      "outputs": [
        {
          "internalType": "uint256",
          "name": "",
          "type": "uint256"
        }
      ],
      "stateMutability": "view",
      "type": "function"
    },
    {
      "inputs": [],
      "name": "withdraw",
      "outputs": [
        {
          "internalType": "bool",
          "name": "",
          "type": "bool"
        }
      ],
      "stateMutability": "nonpayable",
      "type": "function"
    }
  ],
  "bytecode": "0x60806040526658d15e1762800060045534801561001b57600080fd5b50600160008190555033600360006101000a81548173ffffffffffffffffffffffffffffffffffffffff021916908373ffffffffffffffffffffffffffffffffffffffff160217905550612ab5806100746000396000f3fe6080604052600436106100915760003560e01c806386039e621161005957806386039e621461016b578063c23b139e14610196578063e814ce78146101b2578063f064c32e146101ce578063f436064d146101f957610091565b80630f08efe014610096578063128ae712146100c157806312e85585146100ec5780631dcf249f146101175780633ccfd60b14610140575b600080fd5b3480156100a257600080fd5b506100ab610215565b6040516100b8919061255c565b60405180910390f35b3480156100cd57600080fd5b506100d66105c7565b6040516100e3919061255c565b60405180910390f35b3480156100f857600080fd5b506101016109e7565b60405161010e9190612699565b60405180910390f35b34801561012357600080fd5b5061013e600480360381019061013991906120dd565b6109f1565b005b34801561014c57600080fd5b50610155610d1f565b604051610162919061257e565b60405180910390f35b34801561017757600080fd5b50610180610e43565b60405161018d919061255c565b60405180910390f35b6101b060048036038101906101ab91906120dd565b6111f5565b005b6101cc60048036038101906101c79190612119565b6114ae565b005b3480156101da57600080fd5b506101e36118de565b6040516101f0919061255c565b60405180910390f35b610213600480360381019061020e919061217c565b611cfe565b005b606060006102236001611fc4565b905060006102316002611fc4565b61023b6001611fc4565b6102459190612754565b90506000808267ffffffffffffffff81111561028a577f4e487b7100000000000000000000000000000000000000000000000000000000600052604160045260246000fd5b6040519080825280602002602001820160405280156102c357816020015b6102b0611fe8565b8152602001906001900390816102a85790505b50905060005b848110156105bc57600073ffffffffffffffffffffffffffffffffffffffff16600660006001846102fa91906126fe565b815260200190815260200160002060040160009054906101000a900473ffffffffffffffffffffffffffffffffffffffff1673ffffffffffffffffffffffffffffffffffffffff1614156105a95760006006600060018461035b91906126fe565b815260200190815260200160002060000154905060006006600083815260200190815260200160002090508060405180610160016040529081600082015481526020016001820160009054906101000a900473ffffffffffffffffffffffffffffffffffffffff1673ffffffffffffffffffffffffffffffffffffffff1673ffffffffffffffffffffffffffffffffffffffff168152602001600282015481526020016003820160009054906101000a900473ffffffffffffffffffffffffffffffffffffffff1673ffffffffffffffffffffffffffffffffffffffff1673ffffffffffffffffffffffffffffffffffffffff1681526020016004820160009054906101000a900473ffffffffffffffffffffffffffffffffffffffff1673ffffffffffffffffffffffffffffffffffffffff1673ffffffffffffffffffffffffffffffffffffffff16815260200160058201548152602001600682015481526020016007820160009054906101000a900460ff161515151581526020016007820160019054906101000a900460ff161515151581526020016007820160029054906101000a900473ffffffffffffffffffffffffffffffffffffffff1673ffffffffffffffffffffffffffffffffffffffff1673ffffffffffffffffffffffffffffffffffffffff16815260200160088201548152505084868151811061058c577f4e487b7100000000000000000000000000000000000000000000000000000000600052603260045260246000fd5b60200260200101819052506001856105a491906126fe565b945050505b80806105b4906127e2565b9150506102c9565b508094505050505090565b606060006105d56001611fc4565b905060008060005b8381101561067e573373ffffffffffffffffffffffffffffffffffffffff166006600060018461060d91906126fe565b815260200190815260200160002060040160009054906101000a900473ffffffffffffffffffffffffffffffffffffffff1673ffffffffffffffffffffffffffffffffffffffff16141561066b5760018361066891906126fe565b92505b8080610676906127e2565b9150506105dd565b5060008267ffffffffffffffff8111156106c1577f4e487b7100000000000000000000000000000000000000000000000000000000600052604160045260246000fd5b6040519080825280602002602001820160405280156106fa57816020015b6106e7611fe8565b8152602001906001900390816106df5790505b50905060005b848110156109dc573373ffffffffffffffffffffffffffffffffffffffff166006600060018461073091906126fe565b815260200190815260200160002060040160009054906101000a900473ffffffffffffffffffffffffffffffffffffffff1673ffffffffffffffffffffffffffffffffffffffff1614156109c957600060018261078d91906126fe565b905060006006600083815260200190815260200160002090508060405180610160016040529081600082015481526020016001820160009054906101000a900473ffffffffffffffffffffffffffffffffffffffff1673ffffffffffffffffffffffffffffffffffffffff1673ffffffffffffffffffffffffffffffffffffffff168152602001600282015481526020016003820160009054906101000a900473ffffffffffffffffffffffffffffffffffffffff1673ffffffffffffffffffffffffffffffffffffffff1673ffffffffffffffffffffffffffffffffffffffff1681526020016004820160009054906101000a900473ffffffffffffffffffffffffffffffffffffffff1673ffffffffffffffffffffffffffffffffffffffff1673ffffffffffffffffffffffffffffffffffffffff16815260200160058201548152602001600682015481526020016007820160009054906101000a900460ff161515151581526020016007820160019054906101000a900460ff161515151581526020016007820160029054906101000a900473ffffffffffffffffffffffffffffffffffffffff1673ffffffffffffffffffffffffffffffffffffffff1673ffffffffffffffffffffffffffffffffffffffff1681526020016008820154815250508486815181106109ac577f4e487b7100000000000000000000000000000000000000000000000000000000600052603260045260246000fd5b60200260200101819052506001856109c491906126fe565b945050505b80806109d4906127e2565b915050610700565b508094505050505090565b6000600454905090565b60006006600083815260200190815260200160002060060154905060006006600084815260200190815260200160002060020154905060006006600085815260200190815260200160002060070160029054906101000a900473ffffffffffffffffffffffffffffffffffffffff16905060006006600086815260200190815260200160002060080154905083421015610ac0576040517f08c379a0000000000000000000000000000000000000000000000000000000008152600401610ab7906125d9565b60405180910390fd5b7fdaec4582d5d9595688c8c98545fdd1c696d41c6aeaeb636737e84ed2f5c00eda8282604051610af1929190612533565b60405180910390a16006600086815260200190815260200160002060030160009054906101000a900473ffffffffffffffffffffffffffffffffffffffff1673ffffffffffffffffffffffffffffffffffffffff166108fc829081150290604051600060405180830381858888f19350505050158015610b75573d6000803e3d6000fd5b508573ffffffffffffffffffffffffffffffffffffffff166323b872dd3084866040518463ffffffff1660e01b8152600401610bb39392919061247e565b600060405180830381600087803b158015610bcd57600080fd5b505af1158015610be1573d6000803e3d6000fd5b50505050816006600087815260200190815260200160002060040160006101000a81548173ffffffffffffffffffffffffffffffffffffffff021916908373ffffffffffffffffffffffffffffffffffffffff16021790555060016006600087815260200190815260200160002060070160016101000a81548160ff021916908315150217905550610c736002611fd2565b7fdaec4582d5d9595688c8c98545fdd1c696d41c6aeaeb636737e84ed2f5c00eda8282604051610ca4929190612533565b60405180910390a1600360009054906101000a900473ffffffffffffffffffffffffffffffffffffffff1673ffffffffffffffffffffffffffffffffffffffff166108fc6004549081150290604051600060405180830381858888f19350505050158015610d16573d6000803e3d6000fd5b50505050505050565b600080600560003373ffffffffffffffffffffffffffffffffffffffff1673ffffffffffffffffffffffffffffffffffffffff1681526020019081526020016000205490506000811115610e3a576000600560003373ffffffffffffffffffffffffffffffffffffffff1673ffffffffffffffffffffffffffffffffffffffff168152602001908152602001600020819055503373ffffffffffffffffffffffffffffffffffffffff166108fc829081150290604051600060405180830381858888f19350505050610e395780600560003373ffffffffffffffffffffffffffffffffffffffff1673ffffffffffffffffffffffffffffffffffffffff168152602001908152602001600020819055506000915050610e40565b5b60019150505b90565b60606000610e516001611fc4565b90506000610e5f6002611fc4565b610e696001611fc4565b610e739190612754565b90506000808267ffffffffffffffff811115610eb8577f4e487b7100000000000000000000000000000000000000000000000000000000600052604160045260246000fd5b604051908082528060200260200182016040528015610ef157816020015b610ede611fe8565b815260200190600190039081610ed65790505b50905060005b848110156111ea57600073ffffffffffffffffffffffffffffffffffffffff1660066000600184610f2891906126fe565b815260200190815260200160002060040160009054906101000a900473ffffffffffffffffffffffffffffffffffffffff1673ffffffffffffffffffffffffffffffffffffffff1614156111d757600060066000600184610f8991906126fe565b815260200190815260200160002060000154905060006006600083815260200190815260200160002090508060405180610160016040529081600082015481526020016001820160009054906101000a900473ffffffffffffffffffffffffffffffffffffffff1673ffffffffffffffffffffffffffffffffffffffff1673ffffffffffffffffffffffffffffffffffffffff168152602001600282015481526020016003820160009054906101000a900473ffffffffffffffffffffffffffffffffffffffff1673ffffffffffffffffffffffffffffffffffffffff1673ffffffffffffffffffffffffffffffffffffffff1681526020016004820160009054906101000a900473ffffffffffffffffffffffffffffffffffffffff1673ffffffffffffffffffffffffffffffffffffffff1673ffffffffffffffffffffffffffffffffffffffff16815260200160058201548152602001600682015481526020016007820160009054906101000a900460ff161515151581526020016007820160019054906101000a900460ff161515151581526020016007820160029054906101000a900473ffffffffffffffffffffffffffffffffffffffff1673ffffffffffffffffffffffffffffffffffffffff1673ffffffffffffffffffffffffffffffffffffffff1681526020016008820154815250508486815181106111ba577f4e487b7100000000000000000000000000000000000000000000000000000000600052603260045260246000fd5b60200260200101819052506001856111d291906126fe565b945050505b80806111e2906127e2565b915050610ef7565b508094505050505090565b6002600054141561123b576040517f08c379a000000000000000000000000000000000000000000000000000000000815260040161123290612679565b60405180910390fd5b60026000819055506000600660008381526020019081526020016000206005015490506000600660008481526020019081526020016000206002015490508134146112bb576040517f08c379a00000000000000000000000000000000000000000000000000000000081526004016112b290612639565b60405180910390fd5b6006600084815260200190815260200160002060030160009054906101000a900473ffffffffffffffffffffffffffffffffffffffff1673ffffffffffffffffffffffffffffffffffffffff166108fc349081150290604051600060405180830381858888f19350505050158015611337573d6000803e3d6000fd5b508373ffffffffffffffffffffffffffffffffffffffff166323b872dd3033846040518463ffffffff1660e01b81526004016113759392919061247e565b600060405180830381600087803b15801561138f57600080fd5b505af11580156113a3573d6000803e3d6000fd5b50505050336006600085815260200190815260200160002060040160006101000a81548173ffffffffffffffffffffffffffffffffffffffff021916908373ffffffffffffffffffffffffffffffffffffffff16021790555060016006600085815260200190815260200160002060070160016101000a81548160ff0219169083151502179055506114356002611fd2565b600360009054906101000a900473ffffffffffffffffffffffffffffffffffffffff1673ffffffffffffffffffffffffffffffffffffffff166108fc6004549081150290604051600060405180830381858888f1935050505015801561149f573d6000803e3d6000fd5b50505060016000819055505050565b600260005414156114f4576040517f08c379a00000000000000000000000000000000000000000000000000000000081526004016114eb90612679565b60405180910390fd5b60026000819055506004548211611540576040517f08c379a0000000000000000000000000000000000000000000000000000000008152600401611537906125f9565b60405180910390fd5b6004543414611584576040517f08c379a000000000000000000000000000000000000000000000000000000000815260040161157b90612659565b60405180910390fd5b600061012c4261159491906126fe565b90506115a06001611fd2565b60006115ac6001611fc4565b90506040518061016001604052808281526020018773ffffffffffffffffffffffffffffffffffffffff1681526020018681526020013373ffffffffffffffffffffffffffffffffffffffff168152602001600073ffffffffffffffffffffffffffffffffffffffff16815260200185815260200183815260200184151581526020016000151581526020013373ffffffffffffffffffffffffffffffffffffffff16815260200185815250600660008381526020019081526020016000206000820151816000015560208201518160010160006101000a81548173ffffffffffffffffffffffffffffffffffffffff021916908373ffffffffffffffffffffffffffffffffffffffff1602179055506040820151816002015560608201518160030160006101000a81548173ffffffffffffffffffffffffffffffffffffffff021916908373ffffffffffffffffffffffffffffffffffffffff16021790555060808201518160040160006101000a81548173ffffffffffffffffffffffffffffffffffffffff021916908373ffffffffffffffffffffffffffffffffffffffff16021790555060a0820151816005015560c0820151816006015560e08201518160070160006101000a81548160ff0219169083151502179055506101008201518160070160016101000a81548160ff0219169083151502179055506101208201518160070160026101000a81548173ffffffffffffffffffffffffffffffffffffffff021916908373ffffffffffffffffffffffffffffffffffffffff16021790555061014082015181600801559050508573ffffffffffffffffffffffffffffffffffffffff166323b872dd3330886040518463ffffffff1660e01b815260040161183c9392919061247e565b600060405180830381600087803b15801561185657600080fd5b505af115801561186a573d6000803e3d6000fd5b50505050848673ffffffffffffffffffffffffffffffffffffffff16827fcfb84d8bf9892707028c4e647c7d8dc7f952fafdae2fa0fb63b39e5ffb1dbdf833600089888a6000338e6040516118c69897969594939291906124b5565b60405180910390a45050600160008190555050505050565b606060006118ec6001611fc4565b905060008060005b83811015611995573373ffffffffffffffffffffffffffffffffffffffff166006600060018461192491906126fe565b815260200190815260200160002060030160009054906101000a900473ffffffffffffffffffffffffffffffffffffffff1673ffffffffffffffffffffffffffffffffffffffff1614156119825760018361197f91906126fe565b92505b808061198d906127e2565b9150506118f4565b5060008267ffffffffffffffff8111156119d8577f4e487b7100000000000000000000000000000000000000000000000000000000600052604160045260246000fd5b604051908082528060200260200182016040528015611a1157816020015b6119fe611fe8565b8152602001906001900390816119f65790505b50905060005b84811015611cf3573373ffffffffffffffffffffffffffffffffffffffff1660066000600184611a4791906126fe565b815260200190815260200160002060030160009054906101000a900473ffffffffffffffffffffffffffffffffffffffff1673ffffffffffffffffffffffffffffffffffffffff161415611ce0576000600182611aa491906126fe565b905060006006600083815260200190815260200160002090508060405180610160016040529081600082015481526020016001820160009054906101000a900473ffffffffffffffffffffffffffffffffffffffff1673ffffffffffffffffffffffffffffffffffffffff1673ffffffffffffffffffffffffffffffffffffffff168152602001600282015481526020016003820160009054906101000a900473ffffffffffffffffffffffffffffffffffffffff1673ffffffffffffffffffffffffffffffffffffffff1673ffffffffffffffffffffffffffffffffffffffff1681526020016004820160009054906101000a900473ffffffffffffffffffffffffffffffffffffffff1673ffffffffffffffffffffffffffffffffffffffff1673ffffffffffffffffffffffffffffffffffffffff16815260200160058201548152602001600682015481526020016007820160009054906101000a900460ff161515151581526020016007820160019054906101000a900460ff161515151581526020016007820160029054906101000a900473ffffffffffffffffffffffffffffffffffffffff1673ffffffffffffffffffffffffffffffffffffffff1673ffffffffffffffffffffffffffffffffffffffff168152602001600882015481525050848681518110611cc3577f4e487b7100000000000000000000000000000000000000000000000000000000600052603260045260246000fd5b6020026020010181905250600185611cdb91906126fe565b945050505b8080611ceb906127e2565b915050611a17565b508094505050505090565b60026000541415611d44576040517f08c379a0000000000000000000000000000000000000000000000000000000008152600401611d3b90612679565b60405180910390fd5b600260008190555060006006600083815260200190815260200160002060050154905060006006600084815260200190815260200160002060060154905060006006600085815260200190815260200160002060070160029054906101000a900473ffffffffffffffffffffffffffffffffffffffff16905060006006600086815260200190815260200160002060080154905082421115611e1b576040517f08c379a0000000000000000000000000000000000000000000000000000000008152600401611e12906125b9565b60405180910390fd5b83341015611e5e576040517f08c379a0000000000000000000000000000000000000000000000000000000008152600401611e5590612599565b60405180910390fd5b60045481611e6c91906126fe565b3411611ead576040517f08c379a0000000000000000000000000000000000000000000000000000000008152600401611ea490612619565b60405180910390fd5b60008114611f0c5780600560008473ffffffffffffffffffffffffffffffffffffffff1673ffffffffffffffffffffffffffffffffffffffff1681526020019081526020016000206000828254611f0491906126fe565b925050819055505b336006600087815260200190815260200160002060070160026101000a81548173ffffffffffffffffffffffffffffffffffffffff021916908373ffffffffffffffffffffffffffffffffffffffff1602179055503460066000878152602001908152602001600020600801819055507ff4757a49b326036464bec6fe419a4ae38c8a02ce3e68bf0809674f6aab8ad3003334604051611fad929190612533565b60405180910390a150505050600160008190555050565b600081600001549050919050565b6001816000016000828254019250508190555050565b60405180610160016040528060008152602001600073ffffffffffffffffffffffffffffffffffffffff16815260200160008152602001600073ffffffffffffffffffffffffffffffffffffffff168152602001600073ffffffffffffffffffffffffffffffffffffffff1681526020016000815260200160008152602001600015158152602001600015158152602001600073ffffffffffffffffffffffffffffffffffffffff168152602001600081525090565b6000813590506120ad81612a3a565b92915050565b6000813590506120c281612a51565b92915050565b6000813590506120d781612a68565b92915050565b600080604083850312156120f057600080fd5b60006120fe8582860161209e565b925050602061210f858286016120c8565b9150509250929050565b6000806000806080858703121561212f57600080fd5b600061213d8782880161209e565b945050602061214e878288016120c8565b935050604061215f878288016120c8565b9250506060612170878288016120b3565b91505092959194509250565b60006020828403121561218e57600080fd5b600061219c848285016120c8565b91505092915050565b60006121b1838361237f565b6101608301905092915050565b6121c78161279a565b82525050565b6121d681612788565b82525050565b6121e581612788565b82525050565b60006121f6826126c4565b61220081856126dc565b935061220b836126b4565b8060005b8381101561223c57815161222388826121a5565b975061222e836126cf565b92505060018101905061220f565b5085935050505092915050565b612252816127ac565b82525050565b612261816127ac565b82525050565b60006122746029836126ed565b915061227f8261285a565b604082019050919050565b60006122976015836126ed565b91506122a2826128a9565b602082019050919050565b60006122ba6016836126ed565b91506122c5826128d2565b602082019050919050565b60006122dd601b836126ed565b91506122e8826128fb565b602082019050919050565b6000612300603d836126ed565b915061230b82612924565b604082019050919050565b60006123236040836126ed565b915061232e82612973565b604082019050919050565b60006123466024836126ed565b9150612351826129c2565b604082019050919050565b6000612369601f836126ed565b915061237482612a11565b602082019050919050565b610160820160008201516123966000850182612460565b5060208201516123a960208501826121cd565b5060408201516123bc6040850182612460565b5060608201516123cf60608501826121be565b5060808201516123e260808501826121be565b5060a08201516123f560a0850182612460565b5060c082015161240860c0850182612460565b5060e082015161241b60e0850182612249565b50610100820151612430610100850182612249565b506101208201516124456101208501826121cd565b5061014082015161245a610140850182612460565b50505050565b612469816127d8565b82525050565b612478816127d8565b82525050565b600060608201905061249360008301866121dc565b6124a060208301856121dc565b6124ad604083018461246f565b949350505050565b6000610100820190506124cb600083018b6121dc565b6124d8602083018a6121dc565b6124e5604083018961246f565b6124f2606083018861246f565b6124ff6080830187612258565b61250c60a0830186612258565b61251960c08301856121dc565b61252660e083018461246f565b9998505050505050505050565b600060408201905061254860008301856121dc565b612555602083018461246f565b9392505050565b6000602082019050818103600083015261257681846121eb565b905092915050565b60006020820190506125936000830184612258565b92915050565b600060208201905081810360008301526125b281612267565b9050919050565b600060208201905081810360008301526125d28161228a565b9050919050565b600060208201905081810360008301526125f2816122ad565b9050919050565b60006020820190508181036000830152612612816122d0565b9050919050565b60006020820190508181036000830152612632816122f3565b9050919050565b6000602082019050818103600083015261265281612316565b9050919050565b6000602082019050818103600083015261267281612339565b9050919050565b600060208201905081810360008301526126928161235c565b9050919050565b60006020820190506126ae600083018461246f565b92915050565b6000819050602082019050919050565b600081519050919050565b6000602082019050919050565b600082825260208201905092915050565b600082825260208201905092915050565b6000612709826127d8565b9150612714836127d8565b9250827fffffffffffffffffffffffffffffffffffffffffffffffffffffffffffffffff038211156127495761274861282b565b5b828201905092915050565b600061275f826127d8565b915061276a836127d8565b92508282101561277d5761277c61282b565b5b828203905092915050565b6000612793826127b8565b9050919050565b60006127a5826127b8565b9050919050565b60008115159050919050565b600073ffffffffffffffffffffffffffffffffffffffff82169050919050565b6000819050919050565b60006127ed826127d8565b91507fffffffffffffffffffffffffffffffffffffffffffffffffffffffffffffffff8214156128205761281f61282b565b5b600182019050919050565b7f4e487b7100000000000000000000000000000000000000000000000000000000600052601160045260246000fd5b7f626964206e6565647320746f20626520686967686572207468616e20696e697460008201527f69616c2070726963650000000000000000000000000000000000000000000000602082015250565b7f41756374696f6e20616c726561647920656e6465640000000000000000000000600082015250565b7f41756374696f6e206e6f742079657420656e6465642e00000000000000000000600082015250565b7f5072696365206d757374206265206174206c6561737420302e32350000000000600082015250565b7f6e6565647320746f20626520686967686572207468616e2070726576696f757360008201527f20626964202b206c697374696e67207072696365206f6620302e303235000000602082015250565b7f706c65617365207375626d6974207468652061736b696e67207072696365206960008201527f6e206f7264657220746f20636f6d706c65746520746865207075726368617365602082015250565b7f5072696365206d75737420626520657175616c20746f206c697374696e67207060008201527f7269636500000000000000000000000000000000000000000000000000000000602082015250565b7f5265656e7472616e637947756172643a207265656e7472616e742063616c6c00600082015250565b612a4381612788565b8114612a4e57600080fd5b50565b612a5a816127ac565b8114612a6557600080fd5b50565b612a71816127d8565b8114612a7c57600080fd5b5056fea2646970667358221220121a1926e8ff113f0d3c830256608800c1ae1cac9351f1023728af411c98c17364736f6c63430008040033",
  "linkReferences": {},
  "deployedLinkReferences": {}
}